{
  "_format": "hh-sol-artifact-1",
  "contractName": "MyEpicNFT",
  "sourceName": "contracts/MyEpicNFT.sol",
  "abi": [
    {
      "inputs": [],
      "stateMutability": "nonpayable",
      "type": "constructor"
    },
    {
      "anonymous": false,
      "inputs": [
        {
          "indexed": true,
          "internalType": "address",
          "name": "owner",
          "type": "address"
        },
        {
          "indexed": true,
          "internalType": "address",
          "name": "approved",
          "type": "address"
        },
        {
          "indexed": true,
          "internalType": "uint256",
          "name": "tokenId",
          "type": "uint256"
        }
      ],
      "name": "Approval",
      "type": "event"
    },
    {
      "anonymous": false,
      "inputs": [
        {
          "indexed": true,
          "internalType": "address",
          "name": "owner",
          "type": "address"
        },
        {
          "indexed": true,
          "internalType": "address",
          "name": "operator",
          "type": "address"
        },
        {
          "indexed": false,
          "internalType": "bool",
          "name": "approved",
          "type": "bool"
        }
      ],
      "name": "ApprovalForAll",
      "type": "event"
    },
    {
      "anonymous": false,
      "inputs": [
        {
          "indexed": false,
          "internalType": "address",
          "name": "sender",
          "type": "address"
        },
        {
          "indexed": false,
          "internalType": "uint256",
          "name": "tokenId",
          "type": "uint256"
        }
      ],
      "name": "NewEpicNFTMinted",
      "type": "event"
    },
    {
      "anonymous": false,
      "inputs": [
        {
          "indexed": true,
          "internalType": "address",
          "name": "from",
          "type": "address"
        },
        {
          "indexed": true,
          "internalType": "address",
          "name": "to",
          "type": "address"
        },
        {
          "indexed": true,
          "internalType": "uint256",
          "name": "tokenId",
          "type": "uint256"
        }
      ],
      "name": "Transfer",
      "type": "event"
    },
    {
      "inputs": [
        {
          "internalType": "address",
          "name": "to",
          "type": "address"
        },
        {
          "internalType": "uint256",
          "name": "tokenId",
          "type": "uint256"
        }
      ],
      "name": "approve",
      "outputs": [],
      "stateMutability": "nonpayable",
      "type": "function"
    },
    {
      "inputs": [
        {
          "internalType": "address",
          "name": "owner",
          "type": "address"
        }
      ],
      "name": "balanceOf",
      "outputs": [
        {
          "internalType": "uint256",
          "name": "",
          "type": "uint256"
        }
      ],
      "stateMutability": "view",
      "type": "function"
    },
    {
      "inputs": [
        {
          "internalType": "uint256",
          "name": "tokenId",
          "type": "uint256"
        }
      ],
      "name": "getApproved",
      "outputs": [
        {
          "internalType": "address",
          "name": "",
          "type": "address"
        }
      ],
      "stateMutability": "view",
      "type": "function"
    },
    {
      "inputs": [],
      "name": "getMaxLimit",
      "outputs": [
        {
          "internalType": "uint256",
          "name": "",
          "type": "uint256"
        }
      ],
      "stateMutability": "view",
      "type": "function"
    },
    {
      "inputs": [],
      "name": "getTotalNFTsMintedSoFar",
      "outputs": [
        {
          "internalType": "uint256",
          "name": "",
          "type": "uint256"
        }
      ],
      "stateMutability": "view",
      "type": "function"
    },
    {
      "inputs": [
        {
          "internalType": "address",
          "name": "owner",
          "type": "address"
        },
        {
          "internalType": "address",
          "name": "operator",
          "type": "address"
        }
      ],
      "name": "isApprovedForAll",
      "outputs": [
        {
          "internalType": "bool",
          "name": "",
          "type": "bool"
        }
      ],
      "stateMutability": "view",
      "type": "function"
    },
    {
      "inputs": [],
      "name": "makeAnEpicNFT",
      "outputs": [],
      "stateMutability": "nonpayable",
      "type": "function"
    },
    {
      "inputs": [],
      "name": "name",
      "outputs": [
        {
          "internalType": "string",
          "name": "",
          "type": "string"
        }
      ],
      "stateMutability": "view",
      "type": "function"
    },
    {
      "inputs": [
        {
          "internalType": "uint256",
          "name": "tokenId",
          "type": "uint256"
        }
      ],
      "name": "ownerOf",
      "outputs": [
        {
          "internalType": "address",
          "name": "",
          "type": "address"
        }
      ],
      "stateMutability": "view",
      "type": "function"
    },
    {
      "inputs": [
        {
          "internalType": "uint256",
          "name": "tokenId",
          "type": "uint256"
        }
      ],
      "name": "pickRandomColor",
      "outputs": [
        {
          "internalType": "string",
          "name": "",
          "type": "string"
        }
      ],
      "stateMutability": "view",
      "type": "function"
    },
    {
      "inputs": [
        {
          "internalType": "uint256",
          "name": "tokenId",
          "type": "uint256"
        }
      ],
      "name": "pickRandomFirstWord",
      "outputs": [
        {
          "internalType": "string",
          "name": "",
          "type": "string"
        }
      ],
      "stateMutability": "view",
      "type": "function"
    },
    {
      "inputs": [
        {
          "internalType": "uint256",
          "name": "tokenId",
          "type": "uint256"
        }
      ],
      "name": "pickRandomSecondWord",
      "outputs": [
        {
          "internalType": "string",
          "name": "",
          "type": "string"
        }
      ],
      "stateMutability": "view",
      "type": "function"
    },
    {
      "inputs": [
        {
          "internalType": "uint256",
          "name": "tokenId",
          "type": "uint256"
        }
      ],
      "name": "pickRandomThirdWord",
      "outputs": [
        {
          "internalType": "string",
          "name": "",
          "type": "string"
        }
      ],
      "stateMutability": "view",
      "type": "function"
    },
    {
      "inputs": [
        {
          "internalType": "address",
          "name": "from",
          "type": "address"
        },
        {
          "internalType": "address",
          "name": "to",
          "type": "address"
        },
        {
          "internalType": "uint256",
          "name": "tokenId",
          "type": "uint256"
        }
      ],
      "name": "safeTransferFrom",
      "outputs": [],
      "stateMutability": "nonpayable",
      "type": "function"
    },
    {
      "inputs": [
        {
          "internalType": "address",
          "name": "from",
          "type": "address"
        },
        {
          "internalType": "address",
          "name": "to",
          "type": "address"
        },
        {
          "internalType": "uint256",
          "name": "tokenId",
          "type": "uint256"
        },
        {
          "internalType": "bytes",
          "name": "_data",
          "type": "bytes"
        }
      ],
      "name": "safeTransferFrom",
      "outputs": [],
      "stateMutability": "nonpayable",
      "type": "function"
    },
    {
      "inputs": [
        {
          "internalType": "address",
          "name": "operator",
          "type": "address"
        },
        {
          "internalType": "bool",
          "name": "approved",
          "type": "bool"
        }
      ],
      "name": "setApprovalForAll",
      "outputs": [],
      "stateMutability": "nonpayable",
      "type": "function"
    },
    {
      "inputs": [
        {
          "internalType": "bytes4",
          "name": "interfaceId",
          "type": "bytes4"
        }
      ],
      "name": "supportsInterface",
      "outputs": [
        {
          "internalType": "bool",
          "name": "",
          "type": "bool"
        }
      ],
      "stateMutability": "view",
      "type": "function"
    },
    {
      "inputs": [],
      "name": "symbol",
      "outputs": [
        {
          "internalType": "string",
          "name": "",
          "type": "string"
        }
      ],
      "stateMutability": "view",
      "type": "function"
    },
    {
      "inputs": [
        {
          "internalType": "uint256",
          "name": "tokenId",
          "type": "uint256"
        }
      ],
      "name": "tokenURI",
      "outputs": [
        {
          "internalType": "string",
          "name": "",
          "type": "string"
        }
      ],
      "stateMutability": "view",
      "type": "function"
    },
    {
      "inputs": [
        {
          "internalType": "address",
          "name": "from",
          "type": "address"
        },
        {
          "internalType": "address",
          "name": "to",
          "type": "address"
        },
        {
          "internalType": "uint256",
          "name": "tokenId",
          "type": "uint256"
        }
      ],
      "name": "transferFrom",
      "outputs": [],
      "stateMutability": "nonpayable",
      "type": "function"
    }
  ],
  "bytecode": "0x608060405260405180610100016040528060d381526020016200502a60d39139600890805190602001906200003692919062000e68565b50604051806080016040528060568152602001620050fd60569139600990805190602001906200006892919062000e68565b50604051806101e001604052806040518060400160405280600a81526020017f515545534144494c4c410000000000000000000000000000000000000000000081525081526020016040518060400160405280600581526020017f435552525900000000000000000000000000000000000000000000000000000081525081526020016040518060400160405280600581526020017f535553484900000000000000000000000000000000000000000000000000000081525081526020016040518060400160405280600581526020017f505241544100000000000000000000000000000000000000000000000000000081525081526020016040518060400160405280600581526020017f475241504500000000000000000000000000000000000000000000000000000081525081526020016040518060400160405280600581526020017f4a454c4c5900000000000000000000000000000000000000000000000000000081525081526020016040518060400160405280600681526020017f425552474552000000000000000000000000000000000000000000000000000081525081526020016040518060400160405280600481526020017f41504f4d0000000000000000000000000000000000000000000000000000000081525081526020016040518060400160405280600381526020017f4b4643000000000000000000000000000000000000000000000000000000000081525081526020016040518060400160405280600581526020017f4b4542414200000000000000000000000000000000000000000000000000000081525081526020016040518060400160405280600481526020017f435241420000000000000000000000000000000000000000000000000000000081525081526020016040518060400160405280600781526020017f4c4f42535445520000000000000000000000000000000000000000000000000081525081526020016040518060400160405280600581526020017f53414c414400000000000000000000000000000000000000000000000000000081525081526020016040518060400160405280600781526020017f4c4f4e544f4e470000000000000000000000000000000000000000000000000081525081526020016040518060400160405280600781526020017f42524959414e4900000000000000000000000000000000000000000000000000815250815250600a90600f620003fa92919062000ef9565b50604051806101e001604052806040518060400160405280600481526020017f5a4f524f0000000000000000000000000000000000000000000000000000000081525081526020016040518060400160405280600881526020017f444f5241454d4f4e00000000000000000000000000000000000000000000000081525081526020016040518060400160405280600581526020017f4d494b414e00000000000000000000000000000000000000000000000000000081525081526020016040518060400160405280600881526020017f594f554a49414e4700000000000000000000000000000000000000000000000081525081526020016040518060400160405280600981526020017f544153484942414e41000000000000000000000000000000000000000000000081525081526020016040518060400160405280600381526020017f544f4d000000000000000000000000000000000000000000000000000000000081525081526020016040518060400160405280600581526020017f4a4552525900000000000000000000000000000000000000000000000000000081525081526020016040518060400160405280600481526020017f4e414e490000000000000000000000000000000000000000000000000000000081525081526020016040518060400160405280600681526020017f54414b544155000000000000000000000000000000000000000000000000000081525081526020016040518060400160405280600381526020017f49444b000000000000000000000000000000000000000000000000000000000081525081526020016040518060400160405280600681526020017f454e4f554748000000000000000000000000000000000000000000000000000081525081526020016040518060400160405280600781526020017f4e4f5f494445410000000000000000000000000000000000000000000000000081525081526020016040518060400160405280600681526020017f504f4d504f4e000000000000000000000000000000000000000000000000000081525081526020016040518060400160405280600781526020017f534e49464645520000000000000000000000000000000000000000000000000081525081526020016040518060400160405280600581526020017f464c4f4f46000000000000000000000000000000000000000000000000000000815250815250600b90600f6200078c92919062000ef9565b50604051806101e001604052806040518060400160405280600581526020017f4b4954545900000000000000000000000000000000000000000000000000000081525081526020016040518060400160405280600581526020017f505550505900000000000000000000000000000000000000000000000000000081525081526020016040518060400160405280600581526020017f42554e4e5900000000000000000000000000000000000000000000000000000081525081526020016040518060400160405280600481526020017f4c494f4e0000000000000000000000000000000000000000000000000000000081525081526020016040518060400160405280600781526020017f574f4d424154530000000000000000000000000000000000000000000000000081525081526020016040518060400160405280600681526020017f5241434f4f4e000000000000000000000000000000000000000000000000000081525081526020016040518060400160405280600481526020017f424541520000000000000000000000000000000000000000000000000000000081525081526020016040518060400160405280600481526020017f4d4943450000000000000000000000000000000000000000000000000000000081525081526020016040518060400160405280600481526020017f4455434b0000000000000000000000000000000000000000000000000000000081525081526020016040518060400160405280600781526020017f50484f454e49580000000000000000000000000000000000000000000000000081525081526020016040518060400160405280600681526020017f445241474f4e000000000000000000000000000000000000000000000000000081525081526020016040518060400160405280600581526020017f51494c494e00000000000000000000000000000000000000000000000000000081525081526020016040518060400160405280600781526020017f545245454d414e0000000000000000000000000000000000000000000000000081525081526020016040518060400160405280600581526020017f434c4f554400000000000000000000000000000000000000000000000000000081525081526020016040518060400160405280600981526020017f46554c4c5f4d4f4f4e0000000000000000000000000000000000000000000000815250815250600c90600f62000b1e92919062000ef9565b506040518060c001604052806040518060400160405280600381526020017f726564000000000000000000000000000000000000000000000000000000000081525081526020016040518060400160405280600781526020017f233038433241380000000000000000000000000000000000000000000000000081525081526020016040518060400160405280600581526020017f626c61636b00000000000000000000000000000000000000000000000000000081525081526020016040518060400160405280600681526020017f79656c6c6f77000000000000000000000000000000000000000000000000000081525081526020016040518060400160405280600481526020017f626c75650000000000000000000000000000000000000000000000000000000081525081526020016040518060400160405280600581526020017f677265656e000000000000000000000000000000000000000000000000000000815250815250600d90600662000c9c92919062000f60565b5034801562000caa57600080fd5b506040518060400160405280600981526020017f506f6d706f6e4e465400000000000000000000000000000000000000000000008152506040518060400160405280600681526020017f504f4d504f4e0000000000000000000000000000000000000000000000000000815250816000908051906020019062000d2f92919062000e68565b50806001908051906020019062000d4892919062000e68565b50505062000d966040518060400160405280601e81526020017f54686973206973206d79204e465420636f6e74726163742e20576f616821000081525062000d9c60201b6200132e1760201c565b62001181565b62000e3c8160405160240162000db3919062001095565b6040516020818303038152906040527f41304fac000000000000000000000000000000000000000000000000000000007bffffffffffffffffffffffffffffffffffffffffffffffffffffffff19166020820180517bffffffffffffffffffffffffffffffffffffffffffffffffffffffff838183161783525050505062000e3f60201b60201c565b50565b60008151905060006a636f6e736f6c652e6c6f679050602083016000808483855afa5050505050565b82805462000e76906200110b565b90600052602060002090601f01602090048101928262000e9a576000855562000ee6565b82601f1062000eb557805160ff191683800117855562000ee6565b8280016001018555821562000ee6579182015b8281111562000ee557825182559160200191906001019062000ec8565b5b50905062000ef5919062000fc7565b5090565b82805482825590600052602060002090810192821562000f4d579160200282015b8281111562000f4c57825182908051906020019062000f3b92919062000e68565b509160200191906001019062000f1a565b5b50905062000f5c919062000fe6565b5090565b82805482825590600052602060002090810192821562000fb4579160200282015b8281111562000fb357825182908051906020019062000fa292919062000e68565b509160200191906001019062000f81565b5b50905062000fc3919062000fe6565b5090565b5b8082111562000fe257600081600090555060010162000fc8565b5090565b5b808211156200100a57600081816200100091906200100e565b5060010162000fe7565b5090565b5080546200101c906200110b565b6000825580601f1062001030575062001051565b601f01602090049060005260206000209081019062001050919062000fc7565b5b50565b60006200106182620010b9565b6200106d8185620010c4565b93506200107f818560208601620010d5565b6200108a8162001170565b840191505092915050565b60006020820190508181036000830152620010b1818462001054565b905092915050565b600081519050919050565b600082825260208201905092915050565b60005b83811015620010f5578082015181840152602081019050620010d8565b8381111562001105576000848401525b50505050565b600060028204905060018216806200112457607f821691505b602082108114156200113b576200113a62001141565b5b50919050565b7f4e487b7100000000000000000000000000000000000000000000000000000000600052602260045260246000fd5b6000601f19601f8301169050919050565b613e9980620011916000396000f3fe608060405234801561001057600080fd5b506004361061012c5760003560e01c806370a08231116100ad578063c575757a11610071578063c575757a14610367578063c87b56dd14610397578063de9d132f146103c7578063df6d4843146103d1578063e985e9c5146103ef5761012c565b806370a08231146102b157806395d89b41146102e1578063a22cb465146102ff578063b187301f1461031b578063b88d4fde1461034b5761012c565b806323b872dd116100f457806323b872dd146101e95780632de38d681461020557806342842e0e14610235578063514dc8c6146102515780636352211e146102815761012c565b806301ffc9a714610131578063060475901461016157806306fdde031461017f578063081812fc1461019d578063095ea7b3146101cd575b600080fd5b61014b600480360381019061014691906127c2565b61041f565b6040516101589190612f93565b60405180910390f35b610169610501565b6040516101769190613265565b60405180910390f35b610187610512565b6040516101949190612fae565b60405180910390f35b6101b760048036038101906101b29190612814565b6105a4565b6040516101c49190612f03565b60405180910390f35b6101e760048036038101906101e29190612786565b610629565b005b61020360048036038101906101fe9190612680565b610741565b005b61021f600480360381019061021a9190612814565b6107a1565b60405161022c9190612fae565b60405180910390f35b61024f600480360381019061024a9190612680565b6108bf565b005b61026b60048036038101906102669190612814565b6108df565b6040516102789190612fae565b60405180910390f35b61029b60048036038101906102969190612814565b6109fd565b6040516102a89190612f03565b60405180910390f35b6102cb60048036038101906102c6919061261b565b610aaf565b6040516102d89190613265565b60405180910390f35b6102e9610b67565b6040516102f69190612fae565b60405180910390f35b6103196004803603810190610314919061274a565b610bf9565b005b61033560048036038101906103309190612814565b610c0f565b6040516103429190612fae565b60405180910390f35b610365600480360381019061036091906126cf565b610d2d565b005b610381600480360381019061037c9190612814565b610d8f565b60405161038e9190612fae565b60405180910390f35b6103b160048036038101906103ac9190612814565b610ead565b6040516103be9190612fae565b60405180910390f35b6103cf610fff565b005b6103d9611291565b6040516103e69190613265565b60405180910390f35b61040960048036038101906104049190612644565b61129a565b6040516104169190612f93565b60405180910390f35b60007f80ac58cd000000000000000000000000000000000000000000000000000000007bffffffffffffffffffffffffffffffffffffffffffffffffffffffff1916827bffffffffffffffffffffffffffffffffffffffffffffffffffffffff191614806104ea57507f5b5e139f000000000000000000000000000000000000000000000000000000007bffffffffffffffffffffffffffffffffffffffffffffffffffffffff1916827bffffffffffffffffffffffffffffffffffffffffffffffffffffffff1916145b806104fa57506104f9826113c7565b5b9050919050565b600061050d6007611431565b905090565b606060008054610521906134f9565b80601f016020809104026020016040519081016040528092919081815260200182805461054d906134f9565b801561059a5780601f1061056f5761010080835404028352916020019161059a565b820191906000526020600020905b81548152906001019060200180831161057d57829003601f168201915b5050505050905090565b60006105af8261143f565b6105ee576040517f08c379a00000000000000000000000000000000000000000000000000000000081526004016105e5906131e5565b60405180910390fd5b6004600083815260200190815260200160002060009054906101000a900473ffffffffffffffffffffffffffffffffffffffff169050919050565b6000610634826109fd565b90508073ffffffffffffffffffffffffffffffffffffffff168373ffffffffffffffffffffffffffffffffffffffff1614156106a5576040517f08c379a000000000000000000000000000000000000000000000000000000000815260040161069c90613225565b60405180910390fd5b8073ffffffffffffffffffffffffffffffffffffffff166106c46114ab565b73ffffffffffffffffffffffffffffffffffffffff1614806106f357506106f2816106ed6114ab565b61129a565b5b610732576040517f08c379a000000000000000000000000000000000000000000000000000000000815260040161072990613125565b60405180910390fd5b61073c83836114b3565b505050565b61075261074c6114ab565b8261156c565b610791576040517f08c379a000000000000000000000000000000000000000000000000000000000815260040161078890613245565b60405180910390fd5b61079c83838361164a565b505050565b606060006107d56107b1846118b1565b6040516020016107c19190612e9d565b604051602081830303815290604052611a5e565b9050600a80549050816107e891906135a5565b9050600a8181548110610824577f4e487b7100000000000000000000000000000000000000000000000000000000600052603260045260246000fd5b906000526020600020018054610839906134f9565b80601f0160208091040260200160405190810160405280929190818152602001828054610865906134f9565b80156108b25780601f10610887576101008083540402835291602001916108b2565b820191906000526020600020905b81548152906001019060200180831161089557829003601f168201915b5050505050915050919050565b6108da83838360405180602001604052806000815250610d2d565b505050565b606060006109136108ef846118b1565b6040516020016108ff9190612ee1565b604051602081830303815290604052611a5e565b9050600d805490508161092691906135a5565b9050600d8181548110610962577f4e487b7100000000000000000000000000000000000000000000000000000000600052603260045260246000fd5b906000526020600020018054610977906134f9565b80601f01602080910402602001604051908101604052809291908181526020018280546109a3906134f9565b80156109f05780601f106109c5576101008083540402835291602001916109f0565b820191906000526020600020905b8154815290600101906020018083116109d357829003601f168201915b5050505050915050919050565b6000806002600084815260200190815260200160002060009054906101000a900473ffffffffffffffffffffffffffffffffffffffff169050600073ffffffffffffffffffffffffffffffffffffffff168173ffffffffffffffffffffffffffffffffffffffff161415610aa6576040517f08c379a0000000000000000000000000000000000000000000000000000000008152600401610a9d90613165565b60405180910390fd5b80915050919050565b60008073ffffffffffffffffffffffffffffffffffffffff168273ffffffffffffffffffffffffffffffffffffffff161415610b20576040517f08c379a0000000000000000000000000000000000000000000000000000000008152600401610b1790613145565b60405180910390fd5b600360008373ffffffffffffffffffffffffffffffffffffffff1673ffffffffffffffffffffffffffffffffffffffff168152602001908152602001600020549050919050565b606060018054610b76906134f9565b80601f0160208091040260200160405190810160405280929190818152602001828054610ba2906134f9565b8015610bef5780601f10610bc457610100808354040283529160200191610bef565b820191906000526020600020905b815481529060010190602001808311610bd257829003601f168201915b5050505050905090565b610c0b610c046114ab565b8383611a91565b5050565b60606000610c43610c1f846118b1565b604051602001610c2f9190612e36565b604051602081830303815290604052611a5e565b9050600b8054905081610c5691906135a5565b9050600b8181548110610c92577f4e487b7100000000000000000000000000000000000000000000000000000000600052603260045260246000fd5b906000526020600020018054610ca7906134f9565b80601f0160208091040260200160405190810160405280929190818152602001828054610cd3906134f9565b8015610d205780601f10610cf557610100808354040283529160200191610d20565b820191906000526020600020905b815481529060010190602001808311610d0357829003601f168201915b5050505050915050919050565b610d3e610d386114ab565b8361156c565b610d7d576040517f08c379a0000000000000000000000000000000000000000000000000000000008152600401610d7490613245565b60405180910390fd5b610d8984848484611bfe565b50505050565b60606000610dc3610d9f846118b1565b604051602001610daf9190612e14565b604051602081830303815290604052611a5e565b9050600c8054905081610dd691906135a5565b9050600c8181548110610e12577f4e487b7100000000000000000000000000000000000000000000000000000000600052603260045260246000fd5b906000526020600020018054610e27906134f9565b80601f0160208091040260200160405190810160405280929190818152602001828054610e53906134f9565b8015610ea05780601f10610e7557610100808354040283529160200191610ea0565b820191906000526020600020905b815481529060010190602001808311610e8357829003601f168201915b5050505050915050919050565b6060610eb88261143f565b610ef7576040517f08c379a0000000000000000000000000000000000000000000000000000000008152600401610eee906131c5565b60405180910390fd5b6000600660008481526020019081526020016000208054610f17906134f9565b80601f0160208091040260200160405190810160405280929190818152602001828054610f43906134f9565b8015610f905780601f10610f6557610100808354040283529160200191610f90565b820191906000526020600020905b815481529060010190602001808311610f7357829003601f168201915b505050505090506000610fa1611c5a565b9050600081511415610fb7578192505050610ffa565b600082511115610fec578082604051602001610fd4929190612d54565b60405160208183030381529060405292505050610ffa565b610ff584611c71565b925050505b919050565b600061100b6007611431565b905060328110611050576040517f08c379a0000000000000000000000000000000000000000000000000000000008152600401611047906130e5565b60405180910390fd5b600061105b826107a1565b9050600061106883610c0f565b9050600061107584610d8f565b9050600083838360405160200161108e93929190612d78565b604051602081830303815290604052905060006110aa866108df565b905060006008826009856040516020016110c79493929190612da9565b6040516020818303038152906040529050600061110c846110e784611d18565b6040516020016110f8929190612e58565b604051602081830303815290604052611d18565b90506000816040516020016111219190612ebf565b60405160208183030381529060405290506111706040518060400160405280601581526020017f0a2d2d2d2d2d2d2d2d2d2d2d2d2d2d2d2d2d2d2d2d000000000000000000000081525061132e565b6111ce6040518060400160405280600c81526020017f0a4e465420507265766965770000000000000000000000000000000000000000815250826040516020016111ba9190612df2565b604051602081830303815290604052611ea2565b61120c6040518060400160405280601581526020017f2d2d2d2d2d2d2d2d2d2d2d2d2d2d2d2d2d2d2d2d0a000000000000000000000081525061132e565b611216338a611f3e565b6112208982611f5c565b61122a6007611fd0565b61124d604051806060016040528060258152602001613dff602591398a33611fe6565b7febb98688741ffa4c7589bf325de30cf7becb63de567842e1ccdb6cb949fdc82c338a60405161127e929190612f6a565b60405180910390a1505050505050505050565b60006032905090565b6000600560008473ffffffffffffffffffffffffffffffffffffffff1673ffffffffffffffffffffffffffffffffffffffff16815260200190815260200160002060008373ffffffffffffffffffffffffffffffffffffffff1673ffffffffffffffffffffffffffffffffffffffff16815260200190815260200160002060009054906101000a900460ff16905092915050565b6113c4816040516024016113429190612fae565b6040516020818303038152906040527f41304fac000000000000000000000000000000000000000000000000000000007bffffffffffffffffffffffffffffffffffffffffffffffffffffffff19166020820180517bffffffffffffffffffffffffffffffffffffffffffffffffffffffff8381831617835250505050612085565b50565b60007f01ffc9a7000000000000000000000000000000000000000000000000000000007bffffffffffffffffffffffffffffffffffffffffffffffffffffffff1916827bffffffffffffffffffffffffffffffffffffffffffffffffffffffff1916149050919050565b600081600001549050919050565b60008073ffffffffffffffffffffffffffffffffffffffff166002600084815260200190815260200160002060009054906101000a900473ffffffffffffffffffffffffffffffffffffffff1673ffffffffffffffffffffffffffffffffffffffff1614159050919050565b600033905090565b816004600083815260200190815260200160002060006101000a81548173ffffffffffffffffffffffffffffffffffffffff021916908373ffffffffffffffffffffffffffffffffffffffff160217905550808273ffffffffffffffffffffffffffffffffffffffff16611526836109fd565b73ffffffffffffffffffffffffffffffffffffffff167f8c5be1e5ebec7d5bd14f71427d1e84f3dd0314c0f7b2291e5b200ac8c7c3b92560405160405180910390a45050565b60006115778261143f565b6115b6576040517f08c379a00000000000000000000000000000000000000000000000000000000081526004016115ad90613105565b60405180910390fd5b60006115c1836109fd565b90508073ffffffffffffffffffffffffffffffffffffffff168473ffffffffffffffffffffffffffffffffffffffff16148061163057508373ffffffffffffffffffffffffffffffffffffffff16611618846105a4565b73ffffffffffffffffffffffffffffffffffffffff16145b806116415750611640818561129a565b5b91505092915050565b8273ffffffffffffffffffffffffffffffffffffffff1661166a826109fd565b73ffffffffffffffffffffffffffffffffffffffff16146116c0576040517f08c379a00000000000000000000000000000000000000000000000000000000081526004016116b790613065565b60405180910390fd5b600073ffffffffffffffffffffffffffffffffffffffff168273ffffffffffffffffffffffffffffffffffffffff161415611730576040517f08c379a0000000000000000000000000000000000000000000000000000000008152600401611727906130a5565b60405180910390fd5b61173b8383836120ae565b6117466000826114b3565b6001600360008573ffffffffffffffffffffffffffffffffffffffff1673ffffffffffffffffffffffffffffffffffffffff1681526020019081526020016000206000828254611796919061340f565b925050819055506001600360008473ffffffffffffffffffffffffffffffffffffffff1673ffffffffffffffffffffffffffffffffffffffff16815260200190815260200160002060008282546117ed919061332e565b92505081905550816002600083815260200190815260200160002060006101000a81548173ffffffffffffffffffffffffffffffffffffffff021916908373ffffffffffffffffffffffffffffffffffffffff160217905550808273ffffffffffffffffffffffffffffffffffffffff168473ffffffffffffffffffffffffffffffffffffffff167fddf252ad1be2c89b69c2b068fc378daa952ba7f163c4a11628f55a4df523b3ef60405160405180910390a46118ac8383836120b3565b505050565b606060008214156118f9576040518060400160405280600181526020017f30000000000000000000000000000000000000000000000000000000000000008152509050611a59565b600082905060005b6000821461192b5780806119149061355c565b915050600a826119249190613384565b9150611901565b60008167ffffffffffffffff81111561196d577f4e487b7100000000000000000000000000000000000000000000000000000000600052604160045260246000fd5b6040519080825280601f01601f19166020018201604052801561199f5781602001600182028036833780820191505090505b5090505b60008514611a52576001826119b8919061340f565b9150600a856119c791906135a5565b60306119d3919061332e565b60f81b818381518110611a0f577f4e487b7100000000000000000000000000000000000000000000000000000000600052603260045260246000fd5b60200101907effffffffffffffffffffffffffffffffffffffffffffffffffffffffffffff1916908160001a905350600a85611a4b9190613384565b94506119a3565b8093505050505b919050565b600081604051602001611a719190612d3d565b6040516020818303038152906040528051906020012060001c9050919050565b8173ffffffffffffffffffffffffffffffffffffffff168373ffffffffffffffffffffffffffffffffffffffff161415611b00576040517f08c379a0000000000000000000000000000000000000000000000000000000008152600401611af7906130c5565b60405180910390fd5b80600560008573ffffffffffffffffffffffffffffffffffffffff1673ffffffffffffffffffffffffffffffffffffffff16815260200190815260200160002060008473ffffffffffffffffffffffffffffffffffffffff1673ffffffffffffffffffffffffffffffffffffffff16815260200190815260200160002060006101000a81548160ff0219169083151502179055508173ffffffffffffffffffffffffffffffffffffffff168373ffffffffffffffffffffffffffffffffffffffff167f17307eab39ab6107e8899845ad3d59bd9653f200f220920489ca2b5937696c3183604051611bf19190612f93565b60405180910390a3505050565b611c0984848461164a565b611c15848484846120b8565b611c54576040517f08c379a0000000000000000000000000000000000000000000000000000000008152600401611c4b90613045565b60405180910390fd5b50505050565b606060405180602001604052806000815250905090565b6060611c7c8261143f565b611cbb576040517f08c379a0000000000000000000000000000000000000000000000000000000008152600401611cb290613205565b60405180910390fd5b6000611cc5611c5a565b90506000815111611ce55760405180602001604052806000815250611d10565b80611cef846118b1565b604051602001611d00929190612d54565b6040516020818303038152906040525b915050919050565b6060600082511415611d3b57604051806020016040528060008152509050611e9d565b6000604051806060016040528060408152602001613e246040913990506000600360028551611d6a919061332e565b611d749190613384565b6004611d8091906133b5565b67ffffffffffffffff811115611dbf577f4e487b7100000000000000000000000000000000000000000000000000000000600052604160045260246000fd5b6040519080825280601f01601f191660200182016040528015611df15781602001600182028036833780820191505090505b509050600182016020820185865187015b80821015611e5d576003820191508151603f8160121c168501518453600184019350603f81600c1c168501518453600184019350603f8160061c168501518453600184019350603f8116850151845360018401935050611e02565b5050600386510660018114611e795760028114611e8c57611e94565b603d6001830353603d6002830353611e94565b603d60018303535b50505080925050505b919050565b611f3a8282604051602401611eb8929190612fd0565b6040516020818303038152906040527f4b5c4277000000000000000000000000000000000000000000000000000000007bffffffffffffffffffffffffffffffffffffffffffffffffffffffff19166020820180517bffffffffffffffffffffffffffffffffffffffffffffffffffffffff8381831617835250505050612085565b5050565b611f5882826040518060200160405280600081525061224f565b5050565b611f658261143f565b611fa4576040517f08c379a0000000000000000000000000000000000000000000000000000000008152600401611f9b90613185565b60405180910390fd5b80600660008481526020019081526020016000209080519060200190611fcb9291906124a7565b505050565b6001816000016000828254019250508190555050565b612080838383604051602401611ffe93929190613007565b6040516020818303038152906040527fe3849f79000000000000000000000000000000000000000000000000000000007bffffffffffffffffffffffffffffffffffffffffffffffffffffffff19166020820180517bffffffffffffffffffffffffffffffffffffffffffffffffffffffff8381831617835250505050612085565b505050565b60008151905060006a636f6e736f6c652e6c6f679050602083016000808483855afa5050505050565b505050565b505050565b60006120d98473ffffffffffffffffffffffffffffffffffffffff166122aa565b15612242578373ffffffffffffffffffffffffffffffffffffffff1663150b7a026121026114ab565b8786866040518563ffffffff1660e01b81526004016121249493929190612f1e565b602060405180830381600087803b15801561213e57600080fd5b505af192505050801561216f57506040513d601f19601f8201168201806040525081019061216c91906127eb565b60015b6121f2573d806000811461219f576040519150601f19603f3d011682016040523d82523d6000602084013e6121a4565b606091505b506000815114156121ea576040517f08c379a00000000000000000000000000000000000000000000000000000000081526004016121e190613045565b60405180910390fd5b805181602001fd5b63150b7a0260e01b7bffffffffffffffffffffffffffffffffffffffffffffffffffffffff1916817bffffffffffffffffffffffffffffffffffffffffffffffffffffffff191614915050612247565b600190505b949350505050565b61225983836122cd565b61226660008484846120b8565b6122a5576040517f08c379a000000000000000000000000000000000000000000000000000000000815260040161229c90613045565b60405180910390fd5b505050565b6000808273ffffffffffffffffffffffffffffffffffffffff163b119050919050565b600073ffffffffffffffffffffffffffffffffffffffff168273ffffffffffffffffffffffffffffffffffffffff16141561233d576040517f08c379a0000000000000000000000000000000000000000000000000000000008152600401612334906131a5565b60405180910390fd5b6123468161143f565b15612386576040517f08c379a000000000000000000000000000000000000000000000000000000000815260040161237d90613085565b60405180910390fd5b612392600083836120ae565b6001600360008473ffffffffffffffffffffffffffffffffffffffff1673ffffffffffffffffffffffffffffffffffffffff16815260200190815260200160002060008282546123e2919061332e565b92505081905550816002600083815260200190815260200160002060006101000a81548173ffffffffffffffffffffffffffffffffffffffff021916908373ffffffffffffffffffffffffffffffffffffffff160217905550808273ffffffffffffffffffffffffffffffffffffffff16600073ffffffffffffffffffffffffffffffffffffffff167fddf252ad1be2c89b69c2b068fc378daa952ba7f163c4a11628f55a4df523b3ef60405160405180910390a46124a3600083836120b3565b5050565b8280546124b3906134f9565b90600052602060002090601f0160209004810192826124d5576000855561251c565b82601f106124ee57805160ff191683800117855561251c565b8280016001018555821561251c579182015b8281111561251b578251825591602001919060010190612500565b5b509050612529919061252d565b5090565b5b8082111561254657600081600090555060010161252e565b5090565b600061255d612558846132a5565b613280565b90508281526020810184848401111561257557600080fd5b6125808482856134b7565b509392505050565b60008135905061259781613da2565b92915050565b6000813590506125ac81613db9565b92915050565b6000813590506125c181613dd0565b92915050565b6000815190506125d681613dd0565b92915050565b600082601f8301126125ed57600080fd5b81356125fd84826020860161254a565b91505092915050565b60008135905061261581613de7565b92915050565b60006020828403121561262d57600080fd5b600061263b84828501612588565b91505092915050565b6000806040838503121561265757600080fd5b600061266585828601612588565b925050602061267685828601612588565b9150509250929050565b60008060006060848603121561269557600080fd5b60006126a386828701612588565b93505060206126b486828701612588565b92505060406126c586828701612606565b9150509250925092565b600080600080608085870312156126e557600080fd5b60006126f387828801612588565b945050602061270487828801612588565b935050604061271587828801612606565b925050606085013567ffffffffffffffff81111561273257600080fd5b61273e878288016125dc565b91505092959194509250565b6000806040838503121561275d57600080fd5b600061276b85828601612588565b925050602061277c8582860161259d565b9150509250929050565b6000806040838503121561279957600080fd5b60006127a785828601612588565b92505060206127b885828601612606565b9150509250929050565b6000602082840312156127d457600080fd5b60006127e2848285016125b2565b91505092915050565b6000602082840312156127fd57600080fd5b600061280b848285016125c7565b91505092915050565b60006020828403121561282657600080fd5b600061283484828501612606565b91505092915050565b61284681613443565b82525050565b61285581613455565b82525050565b6000612866826132eb565b6128708185613301565b93506128808185602086016134c6565b61288981613692565b840191505092915050565b600061289f826132f6565b6128a98185613312565b93506128b98185602086016134c6565b6128c281613692565b840191505092915050565b60006128d8826132f6565b6128e28185613323565b93506128f28185602086016134c6565b80840191505092915050565b6000815461290b816134f9565b6129158186613323565b94506001821660008114612930576001811461294157612974565b60ff19831686528186019350612974565b61294a856132d6565b60005b8381101561296c5781548189015260018201915060208101905061294d565b838801955050505b50505092915050565b600061298a602583613323565b9150612995826136a3565b602582019050919050565b60006129ad603283613312565b91506129b8826136f2565b604082019050919050565b60006129d0602583613312565b91506129db82613741565b604082019050919050565b60006129f3601c83613312565b91506129fe82613790565b602082019050919050565b6000612a16600a83613323565b9150612a21826137b9565b600a82019050919050565b6000612a39602483613312565b9150612a44826137e2565b604082019050919050565b6000612a5c601983613312565b9150612a6782613831565b602082019050919050565b6000612a7f606383613323565b9150612a8a8261385a565b606382019050919050565b6000612aa2603683613312565b9150612aad826138f5565b604082019050919050565b6000612ac5600b83613323565b9150612ad082613944565b600b82019050919050565b6000612ae8602c83613312565b9150612af38261396d565b604082019050919050565b6000612b0b600d83613323565b9150612b16826139bc565b600d82019050919050565b6000612b2e603883613312565b9150612b39826139e5565b604082019050919050565b6000612b51602a83613312565b9150612b5c82613a34565b604082019050919050565b6000612b74602983613312565b9150612b7f82613a83565b604082019050919050565b6000612b97602e83613312565b9150612ba282613ad2565b604082019050919050565b6000612bba600283613323565b9150612bc582613b21565b600282019050919050565b6000612bdd602083613312565b9150612be882613b4a565b602082019050919050565b6000612c00603183613312565b9150612c0b82613b73565b604082019050919050565b6000612c23602c83613312565b9150612c2e82613bc2565b604082019050919050565b6000612c46602f83613312565b9150612c5182613c11565b604082019050919050565b6000612c69600a83613323565b9150612c7482613c60565b600a82019050919050565b6000612c8c602183613312565b9150612c9782613c89565b604082019050919050565b6000612caf600a83613323565b9150612cba82613cd8565b600a82019050919050565b6000612cd2601d83613323565b9150612cdd82613d01565b601d82019050919050565b6000612cf5603183613312565b9150612d0082613d2a565b604082019050919050565b6000612d18600583613323565b9150612d2382613d79565b600582019050919050565b612d37816134ad565b82525050565b6000612d4982846128cd565b915081905092915050565b6000612d6082856128cd565b9150612d6c82846128cd565b91508190509392505050565b6000612d8482866128cd565b9150612d9082856128cd565b9150612d9c82846128cd565b9150819050949350505050565b6000612db582876128fe565b9150612dc182866128cd565b9150612dcd82856128fe565b9150612dd982846128cd565b9150612de482612afe565b915081905095945050505050565b6000612dfd8261297d565b9150612e0982846128cd565b915081905092915050565b6000612e1f82612a09565b9150612e2b82846128cd565b915081905092915050565b6000612e4182612ab8565b9150612e4d82846128cd565b915081905092915050565b6000612e6382612c5c565b9150612e6f82856128cd565b9150612e7a82612a72565b9150612e8682846128cd565b9150612e9182612bad565b91508190509392505050565b6000612ea882612ca2565b9150612eb482846128cd565b915081905092915050565b6000612eca82612cc5565b9150612ed682846128cd565b915081905092915050565b6000612eec82612d0b565b9150612ef882846128cd565b915081905092915050565b6000602082019050612f18600083018461283d565b92915050565b6000608082019050612f33600083018761283d565b612f40602083018661283d565b612f4d6040830185612d2e565b8181036060830152612f5f818461285b565b905095945050505050565b6000604082019050612f7f600083018561283d565b612f8c6020830184612d2e565b9392505050565b6000602082019050612fa8600083018461284c565b92915050565b60006020820190508181036000830152612fc88184612894565b905092915050565b60006040820190508181036000830152612fea8185612894565b90508181036020830152612ffe8184612894565b90509392505050565b600060608201905081810360008301526130218186612894565b90506130306020830185612d2e565b61303d604083018461283d565b949350505050565b6000602082019050818103600083015261305e816129a0565b9050919050565b6000602082019050818103600083015261307e816129c3565b9050919050565b6000602082019050818103600083015261309e816129e6565b9050919050565b600060208201905081810360008301526130be81612a2c565b9050919050565b600060208201905081810360008301526130de81612a4f565b9050919050565b600060208201905081810360008301526130fe81612a95565b9050919050565b6000602082019050818103600083015261311e81612adb565b9050919050565b6000602082019050818103600083015261313e81612b21565b9050919050565b6000602082019050818103600083015261315e81612b44565b9050919050565b6000602082019050818103600083015261317e81612b67565b9050919050565b6000602082019050818103600083015261319e81612b8a565b9050919050565b600060208201905081810360008301526131be81612bd0565b9050919050565b600060208201905081810360008301526131de81612bf3565b9050919050565b600060208201905081810360008301526131fe81612c16565b9050919050565b6000602082019050818103600083015261321e81612c39565b9050919050565b6000602082019050818103600083015261323e81612c7f565b9050919050565b6000602082019050818103600083015261325e81612ce8565b9050919050565b600060208201905061327a6000830184612d2e565b92915050565b600061328a61329b565b9050613296828261352b565b919050565b6000604051905090565b600067ffffffffffffffff8211156132c0576132bf613663565b5b6132c982613692565b9050602081019050919050565b60008190508160005260206000209050919050565b600081519050919050565b600081519050919050565b600082825260208201905092915050565b600082825260208201905092915050565b600081905092915050565b6000613339826134ad565b9150613344836134ad565b9250827fffffffffffffffffffffffffffffffffffffffffffffffffffffffffffffffff03821115613379576133786135d6565b5b828201905092915050565b600061338f826134ad565b915061339a836134ad565b9250826133aa576133a9613605565b5b828204905092915050565b60006133c0826134ad565b91506133cb836134ad565b9250817fffffffffffffffffffffffffffffffffffffffffffffffffffffffffffffffff0483118215151615613404576134036135d6565b5b828202905092915050565b600061341a826134ad565b9150613425836134ad565b925082821015613438576134376135d6565b5b828203905092915050565b600061344e8261348d565b9050919050565b60008115159050919050565b60007fffffffff0000000000000000000000000000000000000000000000000000000082169050919050565b600073ffffffffffffffffffffffffffffffffffffffff82169050919050565b6000819050919050565b82818337600083830152505050565b60005b838110156134e45780820151818401526020810190506134c9565b838111156134f3576000848401525b50505050565b6000600282049050600182168061351157607f821691505b6020821081141561352557613524613634565b5b50919050565b61353482613692565b810181811067ffffffffffffffff8211171561355357613552613663565b5b80604052505050565b6000613567826134ad565b91507fffffffffffffffffffffffffffffffffffffffffffffffffffffffffffffffff82141561359a576135996135d6565b5b600182019050919050565b60006135b0826134ad565b91506135bb836134ad565b9250826135cb576135ca613605565b5b828206905092915050565b7f4e487b7100000000000000000000000000000000000000000000000000000000600052601160045260246000fd5b7f4e487b7100000000000000000000000000000000000000000000000000000000600052601260045260246000fd5b7f4e487b7100000000000000000000000000000000000000000000000000000000600052602260045260246000fd5b7f4e487b7100000000000000000000000000000000000000000000000000000000600052604160045260246000fd5b6000601f19601f8301169050919050565b7f68747470733a2f2f6e6674707265766965772e30786465762e636f6465732f3f60008201527f636f64653d000000000000000000000000000000000000000000000000000000602082015250565b7f4552433732313a207472616e7366657220746f206e6f6e20455243373231526560008201527f63656976657220696d706c656d656e7465720000000000000000000000000000602082015250565b7f4552433732313a207472616e736665722066726f6d20696e636f72726563742060008201527f6f776e6572000000000000000000000000000000000000000000000000000000602082015250565b7f4552433732313a20746f6b656e20616c7265616479206d696e74656400000000600082015250565b7f54484952445f574f524400000000000000000000000000000000000000000000600082015250565b7f4552433732313a207472616e7366657220746f20746865207a65726f2061646460008201527f7265737300000000000000000000000000000000000000000000000000000000602082015250565b7f4552433732313a20617070726f766520746f2063616c6c657200000000000000600082015250565b7f222c20226465736372697074696f6e223a20224120686967686c79206163636c60008201527f61696d656420636f6c6c656374696f6e206f6620737175617265732e222c202260208201527f696d616765223a2022646174613a696d6167652f7376672b786d6c3b6261736560408201527f36342c0000000000000000000000000000000000000000000000000000000000606082015250565b7f43616e6e6f74206265206d696e7465642062656361757365206974207265616360008201527f686564204d4158206e756d626572206f66204e46542e00000000000000000000602082015250565b7f5345434f4e445f574f5244000000000000000000000000000000000000000000600082015250565b7f4552433732313a206f70657261746f7220717565727920666f72206e6f6e657860008201527f697374656e7420746f6b656e0000000000000000000000000000000000000000602082015250565b7f3c2f746578743e3c2f7376673e00000000000000000000000000000000000000600082015250565b7f4552433732313a20617070726f76652063616c6c6572206973206e6f74206f7760008201527f6e6572206e6f7220617070726f76656420666f7220616c6c0000000000000000602082015250565b7f4552433732313a2062616c616e636520717565727920666f7220746865207a6560008201527f726f206164647265737300000000000000000000000000000000000000000000602082015250565b7f4552433732313a206f776e657220717565727920666f72206e6f6e657869737460008201527f656e7420746f6b656e0000000000000000000000000000000000000000000000602082015250565b7f45524337323155524953746f726167653a2055524920736574206f66206e6f6e60008201527f6578697374656e7420746f6b656e000000000000000000000000000000000000602082015250565b7f227d000000000000000000000000000000000000000000000000000000000000600082015250565b7f4552433732313a206d696e7420746f20746865207a65726f2061646472657373600082015250565b7f45524337323155524953746f726167653a2055524920717565727920666f722060008201527f6e6f6e6578697374656e7420746f6b656e000000000000000000000000000000602082015250565b7f4552433732313a20617070726f76656420717565727920666f72206e6f6e657860008201527f697374656e7420746f6b656e0000000000000000000000000000000000000000602082015250565b7f4552433732314d657461646174613a2055524920717565727920666f72206e6f60008201527f6e6578697374656e7420746f6b656e0000000000000000000000000000000000602082015250565b7f7b226e616d65223a202200000000000000000000000000000000000000000000600082015250565b7f4552433732313a20617070726f76616c20746f2063757272656e74206f776e6560008201527f7200000000000000000000000000000000000000000000000000000000000000602082015250565b7f46495253545f574f524400000000000000000000000000000000000000000000600082015250565b7f646174613a6170706c69636174696f6e2f6a736f6e3b6261736536342c000000600082015250565b7f4552433732313a207472616e736665722063616c6c6572206973206e6f74206f60008201527f776e6572206e6f7220617070726f766564000000000000000000000000000000602082015250565b7f434f4c4f52000000000000000000000000000000000000000000000000000000600082015250565b613dab81613443565b8114613db657600080fd5b50565b613dc281613455565b8114613dcd57600080fd5b50565b613dd981613461565b8114613de457600080fd5b50565b613df0816134ad565b8114613dfb57600080fd5b5056fe416e204e465420772f20494420257320686173206265656e206d696e74656420746f2025734142434445464748494a4b4c4d4e4f505152535455565758595a6162636465666768696a6b6c6d6e6f707172737475767778797a303132333435363738392b2fa264697066735822122015d0440aafcc5bb94baf4e98f1b7c8c50a054d3769c15c1d298524d7315b171764736f6c634300080100333c73766720786d6c6e733d27687474703a2f2f7777772e77332e6f72672f323030302f73766727207072657365727665417370656374526174696f3d27784d696e594d696e206d656574272076696577426f783d273020302033353020333530273e3c7374796c653e2e62617365207b2066696c6c3a2077686974653b20666f6e742d66616d696c793a2073657269663b20666f6e742d73697a653a20323470783b207d3c2f7374796c653e3c726563742077696474683d273130302527206865696768743d2731303025272066696c6c3d27272f3e3c7465787420783d273530252720793d273530252720636c6173733d27626173652720646f6d696e616e742d626173656c696e653d276d6964646c652720746578742d616e63686f723d276d6964646c65273e",
  "linkReferences": {},
  "deployedLinkReferences": {}
}